{
  "contractName": "Contest",
  "abi": [
    {
      "inputs": [],
      "payable": true,
      "stateMutability": "payable",
      "type": "constructor"
    },
    {
      "constant": true,
      "inputs": [],
      "name": "contractAmount",
      "outputs": [
        {
          "internalType": "uint256",
          "name": "",
          "type": "uint256"
        }
      ],
      "payable": false,
      "stateMutability": "view",
      "type": "function"
    },
    {
      "constant": true,
      "inputs": [],
      "name": "contractStarted",
      "outputs": [
        {
          "internalType": "bool",
          "name": "",
          "type": "bool"
        }
      ],
      "payable": false,
      "stateMutability": "view",
      "type": "function"
    },
    {
      "constant": true,
      "inputs": [],
      "name": "leaderAddress",
      "outputs": [
        {
          "internalType": "address",
          "name": "",
          "type": "address"
        }
      ],
      "payable": false,
      "stateMutability": "view",
      "type": "function"
    },
    {
      "constant": true,
      "inputs": [],
      "name": "leaderScore",
      "outputs": [
        {
          "internalType": "uint256",
          "name": "",
          "type": "uint256"
        }
      ],
      "payable": false,
      "stateMutability": "view",
      "type": "function"
    },
    {
      "constant": true,
      "inputs": [],
      "name": "minimumContractAmount",
      "outputs": [
        {
          "internalType": "uint256",
          "name": "",
          "type": "uint256"
        }
      ],
      "payable": false,
      "stateMutability": "view",
      "type": "function"
    },
    {
      "constant": true,
      "inputs": [],
      "name": "owner",
      "outputs": [
        {
          "internalType": "address",
          "name": "",
          "type": "address"
        }
      ],
      "payable": false,
      "stateMutability": "view",
      "type": "function"
    },
    {
      "constant": true,
      "inputs": [],
      "name": "getLeaderScore",
      "outputs": [
        {
          "internalType": "uint256",
          "name": "",
          "type": "uint256"
        }
      ],
      "payable": false,
      "stateMutability": "view",
      "type": "function"
    },
    {
      "constant": false,
      "inputs": [
        {
          "internalType": "uint256",
          "name": "score",
          "type": "uint256"
        }
      ],
      "name": "contractSubmission",
      "outputs": [
        {
          "internalType": "bool",
          "name": "",
          "type": "bool"
        }
      ],
      "payable": false,
      "stateMutability": "nonpayable",
      "type": "function"
    },
    {
      "constant": false,
      "inputs": [],
      "name": "beginContract",
      "outputs": [],
      "payable": false,
      "stateMutability": "nonpayable",
      "type": "function"
    },
    {
      "constant": false,
      "inputs": [],
      "name": "endContract",
      "outputs": [],
      "payable": false,
      "stateMutability": "nonpayable",
      "type": "function"
    },
    {
      "constant": false,
      "inputs": [],
      "name": "addMoreContractFunds",
      "outputs": [],
      "payable": true,
      "stateMutability": "payable",
      "type": "function"
    },
    {
      "constant": false,
      "inputs": [],
      "name": "winnerWithdrawal",
      "outputs": [],
      "payable": false,
      "stateMutability": "nonpayable",
      "type": "function"
    }
  ],
  "bytecode": "0x60806040526103e860045560045434101561001957600080fd5b34600381905550336000806101000a81548173ffffffffffffffffffffffffffffffffffffffff021916908373ffffffffffffffffffffffffffffffffffffffff16021790555060646001819055506106a5806100776000396000f3fe6080604052600436106100a75760003560e01c80634c966822116100645780634c966822146101a9578063565a57ca146101c05780638da5cb5b146101eb578063aaa3e78514610242578063bb6e7de914610295578063dfcd643a146102ac576100a7565b806310abda2b146100ac5780631202cfa2146101035780632e5635381461011a578063333f57b31461014557806339fa965b1461017457806348fd06061461017e575b600080fd5b3480156100b857600080fd5b506100c16102d7565b604051808273ffffffffffffffffffffffffffffffffffffffff1673ffffffffffffffffffffffffffffffffffffffff16815260200191505060405180910390f35b34801561010f57600080fd5b506101186102fd565b005b34801561012657600080fd5b5061012f610373565b6040518082815260200191505060405180910390f35b34801561015157600080fd5b5061015a610379565b604051808215151515815260200191505060405180910390f35b61017c61038c565b005b34801561018a57600080fd5b5061019361039e565b6040518082815260200191505060405180910390f35b3480156101b557600080fd5b506101be6103a8565b005b3480156101cc57600080fd5b506101d56104e1565b6040518082815260200191505060405180910390f35b3480156101f757600080fd5b506102006104e7565b604051808273ffffffffffffffffffffffffffffffffffffffff1673ffffffffffffffffffffffffffffffffffffffff16815260200191505060405180910390f35b34801561024e57600080fd5b5061027b6004803603602081101561026557600080fd5b810190808035906020019092919050505061050c565b604051808215151515815260200191505060405180910390f35b3480156102a157600080fd5b506102aa6105f4565b005b3480156102b857600080fd5b506102c161066a565b6040518082815260200191505060405180910390f35b600260009054906101000a900473ffffffffffffffffffffffffffffffffffffffff1681565b6000809054906101000a900473ffffffffffffffffffffffffffffffffffffffff1673ffffffffffffffffffffffffffffffffffffffff163373ffffffffffffffffffffffffffffffffffffffff161461035657600080fd5b6001600260146101000a81548160ff021916908315150217905550565b60015481565b600260149054906101000a900460ff1681565b34600360008282540192505081905550565b6000600154905090565b600260149054906101000a900460ff1615801561041257503373ffffffffffffffffffffffffffffffffffffffff16600260009054906101000a900473ffffffffffffffffffffffffffffffffffffffff1673ffffffffffffffffffffffffffffffffffffffff16145b8015610422575060045460035410155b61042b57600080fd5b3373ffffffffffffffffffffffffffffffffffffffff166108fc6003549081150290604051600060405180830381858888f19350505050156104df576003546003600082825403925050819055506000600260146101000a81548160ff0219169083151502179055506000600260006101000a81548173ffffffffffffffffffffffffffffffffffffffff021916908373ffffffffffffffffffffffffffffffffffffffff16021790555060646001819055505b565b60035481565b6000809054906101000a900473ffffffffffffffffffffffffffffffffffffffff1681565b6000600260149054906101000a900460ff16801561057757503373ffffffffffffffffffffffffffffffffffffffff166000809054906101000a900473ffffffffffffffffffffffffffffffffffffffff1673ffffffffffffffffffffffffffffffffffffffff1614155b8015610587575060045460035410155b61059057600080fd5b60015482106105a257600090506105ef565b8160018190555033600260006101000a81548173ffffffffffffffffffffffffffffffffffffffff021916908373ffffffffffffffffffffffffffffffffffffffff160217905550600190505b919050565b6000809054906101000a900473ffffffffffffffffffffffffffffffffffffffff1673ffffffffffffffffffffffffffffffffffffffff163373ffffffffffffffffffffffffffffffffffffffff161461064d57600080fd5b6000600260146101000a81548160ff021916908315150217905550565b6004548156fea265627a7a72315820f7c9e2b5a30ea3ea0773ab47aa8f9cdf0c39e7fd536d72ef5a7c5fcfc5b668ee64736f6c63430005100032",
  "source": "pragma solidity >=0.4.21 <0.7.0;\n\ncontract Contest {\n    address public owner;\n    \n    uint public leaderScore;\n    address public leaderAddress;\n    \n    // for contract to be started you need to have contract amount > 0\n    bool public contractStarted;\n    uint public contractAmount;\n    \n    uint public minimumContractAmount = 1000;\n    \n    // constructor that ensures the contract owner funds the contract on deployment\n    constructor() public payable{\n        require(msg.value >= minimumContractAmount);\n        contractAmount = msg.value;\n        owner = msg.sender;\n        leaderScore = 100;\n    }\n\n    function getLeaderScore() public view returns (uint) {\n        return leaderScore;\n    }\n    \n    // allowing developers to submit their score in order to determine if they're the current leaders\n    function contractSubmission(uint score) public returns(bool){\n        require(contractStarted && owner != msg.sender && contractAmount >= minimumContractAmount);\n        if(score >= leaderScore){\n            return false;\n        }\n        \n        leaderScore = score;\n        leaderAddress = msg.sender;\n        \n        return true;\n    }\n    \n    function beginContract() public {\n        require(msg.sender == owner);\n        contractStarted = true;\n    }\n    \n    function endContract() public {\n        require(msg.sender == owner);\n        contractStarted = false;\n    }\n    \n    function addMoreContractFunds() public payable {\n        // require(msg.value >= minimumContractAmount);\n        contractAmount += msg.value;\n    }\n    \n    // only winner can withdraw funds\n    function winnerWithdrawal() public {\n        require(!contractStarted && leaderAddress == msg.sender && contractAmount >= minimumContractAmount);\n        \n        if(msg.sender.send(contractAmount)){\n            contractAmount -= contractAmount;\n            contractStarted = false;\n            leaderAddress = address(0);\n            leaderScore = 100;\n            // THOUGHTS: WE CAN OPTIONALLY RESET THE OWNER TO A ZERO ADDRESS TO END THE CONTRACT\n        }\n    }\n    \n}\n",
  "sourcePath": "/home/paul/Desktop/ether_proj/contracts/Contest.sol",
  "compiler": {
    "name": "solc",
    "version": "0.5.16+commit.9c3226ce.Emscripten.clang"
  },
  "schemaVersion": "3.4.1",
  "updatedAt": "2021-06-23T15:06:09.816Z",
  "networkType": "ethereum",
  "devdoc": {
    "methods": {}
  },
  "userdoc": {
    "methods": {}
  }
}